:020000040800F2
:1000000000500020B515000891130008991300084E
:10001000A1130008A9130008B11300080000000094
:10002000000000000000000000000000B9130008FC
:10003000C513000800000000D1130008DD130008FC
:10004000FD150008FD150008FD150008FD15000848
:10005000FD150008FD150008FD150008FD15000838
:10006000FD150008FD150008FD150008FD15000828
:10007000FD150008FD150008FD150008FD15000818
:10008000FD150008FD150008E9130008FD1500081E
:10009000FD150008FD150008FD150008FD150008F8
:1000A000FD150008FD150008FD150008FD150008E8
:1000B000FD150008FD130008FD150008FD150008DA
:1000C000FD150008FD150008FD150008FD150008C8
:1000D000FD15000811140008FD150008FD150008A5
:1000E000FD150008FD150008FD15000800000000C2
:1000F0000000000000000000000000000000000000
:0C01000000000000000000005FF808F1A3
:1001100010B5054C237833B9044B13B10448AFF341
:1001200000800123237010BDD401002000000000D6
:100130003C96000808B5034B1BB103490348AFF3D5
:10014000008008BD00000000D80100203C96000897
:10015000034613F8012B002AFBD1181A0138704707
:1001600081F0004102E000BF83F0004330B54FEA68
:1001700041044FEA430594EA050F08BF90EA020FD5
:100180001FBF54EA000C55EA020C7FEA645C7FEA68
:10019000655C00F0E2804FEA5454D4EB5555B8BF8B
:1001A0006D420CDD2C4480EA020281EA030382EAFC
:1001B000000083EA010180EA020281EA0303362D8E
:1001C00088BF30BD11F0004F4FEA01314FF4801C61
:1001D0004CEA113102D0404261EB410113F0004F73
:1001E0004FEA03334CEA133302D0524263EB43032A
:1001F00094EA050F00F0A780A4F10104D5F1200EC8
:100200000DDB02FA0EFC22FA05F2801841F1000122
:1002100003FA0EF2801843FA05F359410EE0A5F1F6
:1002200020050EF1200E012A03FA0EFC28BF4CF027
:10023000020C43FA05F3C01851EBE37101F00045DD
:1002400007D54FF0000EDCF1000C7EEB00006EEBEA
:100250000101B1F5801F1BD3B1F5001F0CD3490874
:100260005FEA30004FEA3C0C04F101044FEA4452CB
:1002700012F5800F80F09A80BCF1004F08BF5FEA52
:10028000500C50F1000041EB045141EA050130BD32
:100290005FEA4C0C404141EB0101013C28BFB1F544
:1002A000801FE9D291F0000F04BF01460020B1FA8F
:1002B00081F308BF2033A3F10B03B3F120020CDA62
:1002C0000C3208DD02F1140CC2F10C0201FA0CF040
:1002D00021FA02F10CE002F11402D8BFC2F1200CA5
:1002E00001FA02F120FA0CFCDCBF41EA0C0190405B
:1002F000E41AA2BF01EB0451294330BD6FEA0404A4
:100300001F3C1CDA0C340EDC04F11404C4F120028E
:1003100020FA04F001FA02F340EA030021FA04F3A0
:1003200045EA030130BDC4F10C04C4F1200220FAF7
:1003300002F001FA04F340EA0300294630BD21FA35
:1003400004F0294630BD94F0000F83F4801306BFFB
:1003500081F480110134013D4EE77FEA645C18BFEF
:100360007FEA655C29D094EA050F08BF90EA020F86
:1003700005D054EA000C04BF1946104630BD91EA7E
:10038000030F1EBF0021002030BD5FEA545C05D181
:100390004000494128BF41F0004130BD14F58004C0
:1003A0003CBF01F5801130BD01F0004545F0FE4134
:1003B00041F470014FF0000030BD7FEA645C1ABF69
:1003C000194610467FEA655C1CBF0B46024650EAA0
:1003D000013406BF52EA033591EA030F41F40021CC
:1003E00030BD00BF90F0000F04BF0021704730B552
:1003F0004FF4806404F132044FF000054FF0000127
:1004000050E700BF90F0000F04BF0021704730B5E7
:100410004FF4806404F1320410F0004548BF4042BC
:100420004FF000013EE700BF42004FEAE2014FEA11
:1004300031014FEA02701FBF12F07F4393F07F4FEC
:1004400081F06051704732F07F4208BF704793F0EF
:100450007F4F04BF41F40021704730B54FF4607402
:1004600001F0004521F000411CE700BF50EA010205
:1004700008BF704730B54FF000050AE050EA0102AE
:1004800008BF704730B511F0004502D5404261EB1E
:1004900041014FF4806404F132045FEA915C3FF45F
:1004A000D8AE4FF003025FEADC0C18BF03325FEAFC
:1004B000DC0C18BF033202EBDC02C2F1200300FAAD
:1004C00003FC20FA02F001FA03FE40EA0E0021FAD2
:1004D00002F11444BDE600BF70B54FF0FF0C4CF4C0
:1004E000E06C1CEA11541DBF1CEA135594EA0C0F72
:1004F00095EA0C0F00F0DEF82C4481EA030621EAAD
:100500004C5123EA4C5350EA013518BF52EA0335E7
:1005100041F4801143F4801338D0A0FB02CE4FF099
:100520000005E1FB02E506F00042E0FB03E54FF0C9
:100530000006E1FB03569CF0000F18BF4EF0010EC1
:10054000A4F1FF04B6F5007F64F5407404D25FEABD
:100550004E0E6D4146EB060642EAC62141EA555170
:100560004FEAC52040EA5E504FEACE2EB4F1FD0CB2
:1005700088BFBCF5E06F1ED8BEF1004F08BF5FEA30
:10058000500E50F1000041EB045170BD06F00046E2
:1005900046EA010140EA020081EA0301B4EB5C048F
:1005A000C2BFD4EB0C0541EA045170BD41F4801187
:1005B0004FF0000E013C00F3AB8014F1360FDEBFAC
:1005C000002001F0004170BDC4F10004203C35DA88
:1005D0000C341BDC04F11404C4F1200500FA05F30B
:1005E00020FA04F001FA05F240EA020001F00042AC
:1005F00021F0004110EBD37021FA04F642EB060122
:100600005EEA430E08BF20EAD37070BDC4F10C044B
:10061000C4F1200500FA04F320FA05F001FA04F20F
:1006200040EA020001F0004110EBD37041F10001FB
:100630005EEA430E08BF20EAD37070BDC4F1200506
:1006400000FA05F24EEA020E20FA04F301FA05F26E
:1006500043EA020321FA04F001F0004121FA04F216
:1006600020EA020000EBD3705EEA430E08BF20EAE6
:10067000D37070BD94F0000F0FD101F00046400020
:1006800041EB010111F4801F08BF013CF7D041EAA2
:10069000060195F0000F18BF704703F000465200A6
:1006A00043EB030313F4801F08BF013DF7D043EA77
:1006B0000603704794EA0C0F0CEA135518BF95EA2D
:1006C0000C0F0CD050EA410618BF52EA4306D1D1B4
:1006D00081EA030101F000414FF0000070BD50EAD3
:1006E000410606BF1046194652EA430619D094EA5D
:1006F0000C0F02D150EA013613D195EA0C0F05D147
:1007000052EA03361CBF104619460AD181EA03019A
:1007100001F0004141F0FE4141F470014FF0000052
:1007200070BD41F0FE4141F4780170BD70B54FF0ED
:10073000FF0C4CF4E06C1CEA11541DBF1CEA13556D
:1007400094EA0C0F95EA0C0F00F0A7F8A4EB05044F
:1007500081EA030E52EA03354FEA013100F0888046
:100760004FEA03334FF0805545EA131343EA12630F
:100770004FEA022245EA111545EA10654FEA0026C4
:100780000EF000419D4208BF964244F1FD0404F57D
:10079000407402D25B084FEA3202B61A65EB0305D9
:1007A0005B084FEA32024FF480104FF4002CB6EB96
:1007B000020E75EB030E22BFB61A754640EA0C0016
:1007C0005B084FEA3202B6EB020E75EB030E22BF56
:1007D000B61A754640EA5C005B084FEA3202B6EB97
:1007E000020E75EB030E22BFB61A754640EA9C0056
:1007F0005B084FEA3202B6EB020E75EB030E22BF26
:10080000B61A754640EADC0055EA060E18D04FEAE3
:10081000051545EA16754FEA06164FEAC30343EA83
:1008200052734FEAC2025FEA1C1CC0D111F4801F50
:100830000BD141EA00014FF000004FF0004CB6E749
:1008400011F4801F04BF01430020B4F1FD0C88BFE8
:10085000BCF5E06F3FF6AFAEB5EB030C04BFB6EBF3
:10086000020C5FEA500C50F1000041EB045170BDE6
:100870000EF0004E4EEA113114EB5C04C2BFD4EB13
:100880000C0541EA045170BD41F480114FF0000E97
:10089000013C90E645EA060E8DE60CEA135594EA13
:1008A0000C0F08BF95EA0C0F3FF43BAF94EA0C0F16
:1008B0000AD150EA01347FF434AF95EA0C0F7FF48B
:1008C00025AF104619462CE795EA0C0F06D152EADF
:1008D00003353FF4FDAE1046194622E750EA4106C3
:1008E00018BF52EA43067FF4C5AE50EA41047FF4D4
:1008F0000DAF52EA43057FF4EBAE12E74FF0FF3C39
:1009000006E000BF4FF0010C02E000BF4FF0010C09
:100910004DF804CD4FEA410C7FEA6C5C4FEA430C82
:1009200018BF7FEA6C5C1BD001B050EA410C0CBFD1
:1009300052EA430C91EA030F02BF90EA020F002033
:10094000704710F1000F91EA030F58BF994208BF9A
:1009500090422CBFD8176FEAE37040F00100704757
:100960004FEA410C7FEA6C5C02D150EA013C07D1AE
:100970004FEA430C7FEA6C5CD6D152EA033CD3D0F9
:100980005DF8040B704700BF8446104662468C46F3
:100990001946634600E000BF01B5FFF7B7FF002826
:1009A00048BF10F1000F01BD4DF808EDFFF7F4FF4F
:1009B0000CBF012000205DF808FB00BF4DF808EDDA
:1009C000FFF7EAFF34BF012000205DF808FB00BFFD
:1009D0004DF808EDFFF7E0FF94BF012000205DF81F
:1009E00008FB00BF4DF808EDFFF7CEFF94BF0120D4
:1009F00000205DF808FB00BF4DF808EDFFF7C4FFCD
:100A000034BF012000205DF808FB00BF4FEA410C15
:100A10007FEA6C5C02D150EA013C0AD14FEA430CF8
:100A20007FEA6C5C02D152EA033C02D14FF0000035
:100A300070474FF0010070474FEA410212F5001273
:100A400015D211D56FF47873B3EB625212D94FEA15
:100A5000C12343F0004343EA505311F0004F23FAFF
:100A600002F018BF404270474FF00000704750EA54
:100A7000013005D111F0004008BF6FF00040704711
:100A80004FF00000704700BF4A0011D212F500126B
:100A900011D20DD56FF47873B3EB62520ED44FEAD6
:100AA000C12343F0004343EA505323FA02F0704756
:100AB0004FF00000704750EA013002D14FF0FF3094
:100AC00070474FF0000070474FEA4102B2F1E04337
:100AD00024BFB3F5001CDCF1FE5C0DD901F0004C25
:100AE0004FEAC0024CEA5070B2F1004F40EB830075
:100AF00008BF20F00100704711F0804F21D113F1A1
:100B00003872BCBF01F00040704741F480114FEAD9
:100B10005252C2F11802C2F1200C10FA0CF320FA62
:100B200002F018BF40F001004FEAC1234FEAD3237F
:100B300003FA0CFC40EA0C0023FA02F34FEA4303E9
:100B4000CCE77FEA625307D150EA01331EBF4FF072
:100B5000FE4040F44000704701F0004040F0FE408D
:100B600040F40000704700BF38B50022002304465F
:100B70000D46FFF723FF28B920462946BDE8384037
:100B800000F00AB8204605F1004100F005F84042A7
:100B900061EB410138BD00BFD0B500220B4B0646CA
:100BA0000F46FFF799FCFFF76FFF0446FFF71AFCAB
:100BB0000022074BFFF790FC02460B4630463946B1
:100BC000FFF7D2FAFFF760FF2146D0BD0000F03DED
:100BD0000000F04180B500AF00F012FD00F032F8E7
:100BE00000F08EF900F07EF800F060F900F0B8F83F
:100BF00000F002F90F4802F06BFC00210E4802F0F1
:100C000001FD0E4800F036FE64210C4800F00CFF98
:100C10000346002B06D1094801F0C2F803461A46E4
:100C2000074B1A60054800F0D3FE044801F002F8B3
:100C300000BFFDE72002002068020020F001002034
:100C4000FC02002080B594B000AF07F128032822F1
:100C50000021184605F025F907F1140300221A6057
:100C60005A609A60DA601A613B1D00221A605A606D
:100C70009A60DA600223BB620123BB631023FB632B
:100C800000237B6407F12803184601F055FE034654
:100C9000002B01D000F038FA0F237B610023BB61E9
:100CA0000023FB6100233B6200237B6207F11403F6
:100CB0000021184602F0C2F80346002B01D000F0D4
:100CC00023FA02237B600023FB603B1D184602F0E1
:100CD00043FA0346002B01D000F016FA00BF50374C
:100CE000BD4680BD80B584B000AF3B1D00221A60B8
:100CF0005A609A60184B194A1A60174B00229A6082
:100D0000154B00221A73144B00221A75124B4FF424
:100D10006022DA61104B00225A600F4B01221A61E7
:100D20000D4800F0CFFC0346002B01D000F0ECF999
:100D300001237B600123BB600723FB603B1D194639
:100D4000054801F001F90346002B01D000F0DCF961
:100D500000BF1037BD4680BDF001002000240140D7
:100D600080B586B000AF07F1080300221A605A6010
:100D70009A60DA603B4600221A605A601D4B4FF0C1
:100D800080421A601B4B07225A601A4B00229A605D
:100D9000184B4FF6FE72DA60164B00221A61154BA3
:100DA00080229A61134802F043FB0346002B01D0D6
:100DB00000F0AAF94FF48053BB6007F1080319460D
:100DC0000C4802F0C1FE0346002B01D000F09CF954
:100DD00000233B6000237B603B461946054803F037
:100DE0004FFA0346002B01D000F08EF900BF1837F0
:100DF000BD4680BD2002002080B58AB000AF07F15B
:100E0000200300221A605A603B1D00221A605A60BB
:100E10009A60DA601A615A619A61224B224A1A601A
:100E2000204B07225A601F4B00229A601D4B42F252
:100E30000F72DA601B4B00221A611A4B80229A61F2
:100E4000184802F08FFB0346002B01D000F05CF93C
:100E500000233B6200237B6207F1200319461148FF
:100E600003F00EFA0346002B01D000F04DF9602389
:100E70007B604FF4FA73BB600023FB6000237B614F
:100E80003B1D00221946074802F09CFD0346002B3B
:100E900001D000F039F9034800F0F4F900BF283719
:100EA000BD4680BD680200200004004080B500AF50
:100EB000114B124A1A60104B4FF416525A600E4BE7
:100EC00000229A600C4B0022DA600B4B00221A6160
:100ED000094B0C225A61084B00229A61064B0022F2
:100EE000DA61054803F03CFA0346002B01D000F01C
:100EF0000BF900BF80BD00BFB002002000380140E8
:100F000080B586B000AF07F1080300221A605A606E
:100F10009A60DA60184B9B69174A43F0200393618B
:100F2000154B9B6903F020037B607B68124B9B6928
:100F3000114A43F0040393610F4B9B6903F00403D0
:100F40003B603B6800224FF410610C4801F0DCFC70
:100F50004FF41063BB600123FB6000233B6102235D
:100F60007B6107F108031946044801F049FB00BF03
:100F70001837BD4680BD00BF001002400008014088
:100F800080B582B000AF78607B681B68334A9342BB
:100F90005FD1334B1B68002B52D0314B1B68002BA9
:100FA00027DD01224FF480712E4801F0ADFC0022B4
:100FB0004FF400612B4801F0A7FC294B1B68013B53
:100FC000274A1360284800F035FE284B1A68244B46
:100FD0001B682749274804F0FFFE2648FFF7B8F8AA
:100FE00003469AB24FF47A732249234803F008FA71
:100FF00026E000224FF480711A4801F085FC00229F
:101000004FF40061174801F07FFC154B1B6801335A
:10101000134A1360144800F00DFE144B1A68104B6D
:101020001B681349134804F0D7FE1248FFF790F8E5
:1010300003469AB24FF47A730E490F4803F0E0F971
:1010400001224FF40061074801F05EFC064800F001
:10105000F1FD00BF0837BD4680BD00BF0004004061
:101060008403002000080140F0010020F802002065
:101070005896000804030020B002002080B582B01A
:1010800000AF78607B681B68184A934229D11848E2
:1010900000F086FE03461A46164B1A60154B1A6876
:1010A000154B1B68D31A154A1360144B1B68002B91
:1010B000B8BF5B42642B14DD104B1B68C82202FBD7
:1010C00003F30F4A82FB03121A44D212DB17D21A1F
:1010D0000C4B1B6813440B4A1360064B1B68064AF3
:1010E000136000BF0837BD4680BD00BF002401402B
:1010F000F0010020F8020020FC0200200003002084
:10110000810008808403002080B400AF72B600BF65
:1011100000BFFDE780B485B000AF154B9B69144A52
:1011200043F001039361124B9B6903F00103BB6021
:10113000BB680F4BDB690E4A43F08053D3610C4B05
:10114000DB6903F080537B607B680A4B5B68FB6064
:10115000FB6823F0E063FB60FB6843F00073FB6017
:10116000044AFB68536000BF1437BD4680BC70471B
:10117000001002400000014080B588B000AF7860E8
:1011800007F1100300221A605A609A60DA607B68E7
:101190001B68184A934229D1174B9B69164A43F49E
:1011A00000739361144B9B6903F40073FB60FB684D
:1011B000114B9B69104A43F0040393610E4B9B69EA
:1011C00003F00403BB60BB6802233B6103237B6124
:1011D00007F110031946094801F012FA0022002114
:1011E000122001F024F9122001F03DF900BF203750
:1011F000BD4680BD002401400010024000080140AF
:1012000080B485B000AF78607B681B68B3F1804F15
:101210000BD1084BDB69074A43F00103D361054B4F
:10122000DB6903F00103FB60FB6800BF1437BD46B8
:1012300080BC70470010024080B584B000AF786079
:101240007B681B680D4A934213D10D4BDB690C4A36
:1012500043F00203D3610A4BDB6903F00203FB6036
:10126000FB68002200211D2001F0E1F81D2001F0A3
:10127000FAF800BF1037BD4680BD00BF0004004033
:101280000010024080B588B000AF786007F110030D
:1012900000221A605A609A60DA607B681B680F4A05
:1012A000934217D10E4B9B690D4A43F0040393619F
:1012B0000B4B9B6903F00403FB60FB6840233B611D
:1012C00002237B610223FB6107F1100319460548E5
:1012D00001F096F900BF2037BD4680BD00040040F4
:1012E000001002400008014080B588B000AF78606F
:1012F00007F1100300221A605A609A60DA607B6876
:101300001B68204A934239D11F4B9B691E4A43F404
:10131000804393611C4B9B6903F48043FB60FB6833
:10132000194B9B69184A43F004039361164B9B6960
:1013300003F00403BB60BB684FF400733B610223FE
:101340007B610323FB6107F1100319460F4801F08D
:1013500057F94FF480633B6100237B610023BB613D
:1013600007F110031946094801F04AF9002200214B
:10137000252001F05CF8252001F075F800BF20372A
:10138000BD4680BD00380140001002400008014009
:1013900080B400AF00BFFDE780B400AF00BFFDE741
:1013A00080B400AF00BFFDE780B400AF00BFFDE731
:1013B00080B400AF00BFFDE780B400AF00BFBD4602
:1013C00080BC704780B400AF00BFBD4680BC704792
:1013D00080B400AF00BFBD4680BC704780B500AF91
:1013E00000F054F900BF80BD80B500AF024800F0A6
:1013F000E3FC00BF80BD00BFF001002080B500AF5E
:10140000024802F0EFF900BF80BD00BF6802002073
:1014100080B500AF024803F07FF800BF80BD00BF79
:10142000B002002080B400AF01231846BD4680BC46
:10143000704780B582B000AF7860396004F084FDF9
:10144000034616221A604FF0FF3318460837BD4690
:1014500080BD80B582B000AF78604FF0FF31786812
:10146000FFF7E7FF00BFFDE780B586B000AFF8608B
:10147000B9607A6000237B610AE0AFF30080014627
:10148000BB685A1CBA60CAB21A707B6901337B61AF
:101490007A697B689A42F0DB7B6818461837BD464C
:1014A00080BD80B586B000AFF860B9607A60002377
:1014B0007B6109E0BB685A1CBA601B781846AFF321
:1014C00000807B6901337B617A697B689A42F1DB3A
:1014D0007B6818461837BD4680BD80B483B000AF26
:1014E00078604FF0FF3318460C37BD4680BC70471C
:1014F00080B483B000AF786039603B684FF400522D
:101500005A60002318460C37BD4680BC704780B433
:1015100083B000AF7860012318460C37BD4680BC0D
:10152000704780B485B000AFF860B9607A6000237E
:1015300018461437BD4680BC7047000080B586B0A1
:1015400000AF7860144A154BD31A7B617B693B610D
:10155000134B1B68002B02D1114B124A1A60104B1F
:101560001A687B6813443A699A4207D204F0ECFC8B
:1015700003460C221A604FF0FF3309E0084B1B684A
:10158000FB60074B1A687B681344054A1360FB68CD
:1015900018461837BD4680BD0050002000040000EA
:1015A00088030020E004002080B400AF00BFBD46E7
:1015B00080BC7047FFF7F8FF0B480C490C4A00232A
:1015C00002E0D458C4500433C4188C42F9D3094AF9
:1015D000094C002301E013600432A242FBD304F063
:1015E000B9FCFFF7F7FA704700000020D401002093
:1015F000F49A0008D4010020DC040020FEE700007B
:1016000080B500AF084B1B68074A43F01003136016
:10161000032000F001FF0F2000F008F8FFF77AFD2B
:101620000023184680BD00BF0020024080B582B074
:1016300000AF7860124B1A68124B1B7819464FF4B2
:101640007A73B3FBF1F3B2FBF3F3184600F019FF22
:101650000346002B01D001230EE07B680F2B0AD834
:10166000002279684FF0FF3000F0E1FE064A7B6807
:101670001360002300E0012318460837BD4680BDF3
:1016800000000020080000200400002080B400AF0B
:10169000054B1B781A46054B1B681344034A13601D
:1016A00000BFBD4680BC7047080000208C030020AE
:1016B00080B400AF024B1B681846BD4680BC704723
:1016C0008C03002080B586B000AF78600023FB75E6
:1016D00000233B610023BB600023FB607B68002B81
:1016E00001D10123BEE07B689B68002B7B689B6A6D
:1016F000002B09D17B680022DA627B68002283F824
:1017000024207868FFF738FD786800F06FFD034605
:10171000FB757B689B6A03F01003002B40F09980F7
:10172000FB7D002B40F095807B689B6A23F48853F7
:1017300023F0020343F002027B689A627B685A68D6
:101740007B68DB691A437B681B7B5B001343BA68C9
:101750001343BB607B689B68B3F5807F03D07B68D5
:101760009B68012B02D14FF4807300E000233A699B
:1017700013433B617B681B7D012B19D17B681B7B6D
:10178000002B09D17B689B69013B5A033B691343DA
:1017900043F400633B610BE07B689B6A43F02002EB
:1017A0007B689A627B68DB6A43F001027B68DA62DD
:1017B0007B681B685B6823F469417B681B683A6936
:1017C0000A435A607B681B689A68284B13407A6802
:1017D0001268B9680B4393607B689B68B3F5807FA0
:1017E00003D07B689B68012B04D17B681B69013B9C
:1017F0001B05FB607B681B68DB6A23F470017B6858
:101800001B68FA680A43DA627B681B689A68184B9F
:101810001340BA689A420BD17B680022DA627B6877
:101820009B6A23F0030343F001027B689A6218E08D
:101830007B689B6A23F0120343F010027B689A6274
:101840007B68DB6A43F001027B68DA620123FB7587
:1018500007E07B689B6A43F010027B689A62012371
:10186000FB75FB7D18461837BD4680BDFDF7E1FFCF
:10187000FE0E1FFF80B584B000AF78600023FB73BD
:101880007B6893F82430012B01D1022398E07B6818
:10189000012283F82420786800F04EFC0346FB7395
:1018A000FB7B002B40F087807B689B6A23F44073AE
:1018B00023F0010343F480727B689A627B681B68A3
:1018C000414A934205D1414B5B6803F47023002BDE
:1018D00015D17B689B6A23F480127B689A627B68CF
:1018E0001B685B6803F48063002B26D07B689B6ACF
:1018F00023F4405343F480527B689A621DE07B6876
:101900009B6A43F480127B689A627B681B682F4A4B
:10191000934204D07B681B682B4A93420DD12B4B1A
:101920005B6803F48063002B07D07B689B6A23F419
:10193000405343F480527B689A627B689B6A03F44D
:101940008053002B06D07B68DB6A23F006027B689D
:10195000DA6202E07B680022DA627B68002283F8A8
:1019600024207B681B686FF002021A607B681B688A
:101970009B6803F46023B3F5602F13D17B681B6869
:10198000114A934205D1114B5B6803F47023002B7D
:1019900008D17B681B689A687B681B6842F4A002C8
:1019A0009A600CE07B681B689A687B681B6842F44D
:1019B00080129A6003E07B68002283F82420FB7B7E
:1019C00018461037BD4680BD002801400024014064
:1019D00080B584B000AF78600023FB737B6893F818
:1019E0002430012B01D102231AE07B68012283F805
:1019F0002420786800F0FAFB0346FB73FB7B002B86
:101A000009D17B689B6A23F4885323F0010343F0D8
:101A100001027B689A627B68002283F82420FB7BAA
:101A200018461037BD4680BD90B587B000AF7860CE
:101A3000396000237B610023FB6000233B61FFF7DB
:101A400037FE78617B681B689B6803F48073002B0A
:101A50000BD07B689B6A43F020027B689A627B68AC
:101A6000002283F824200123D3E07B681B685B6895
:101A700003F48073002B31D17B681B68DB6A03F4AD
:101A80007003002B2AD121E03B68B3F1FF3F1DD04A
:101A90003B68002B07D0FFF70BFE02467B69D31A89
:101AA0003A689A4212D27B681B681B6803F00203F3
:101AB000002B0BD17B689B6A43F004027B689A621F
:101AC0007B68002283F824200323A2E07B681B6844
:101AD0001B6803F00203002BD6D070E04F4B1C684C
:101AE000022001F0EFFB0346B4FBF3F27B681B68B6
:101AF00019694B4B0B40002B18D17B681B68D968C8
:101B0000484B0B40002B11D17B681B681969464B71
:101B10000B40002B08D17B681B68D968434B0B40F6
:101B2000002B01D1142320E029231EE07B681B68D1
:101B300019693D4B0B40002B06D17B681B68D968A7
:101B40003A4B0B40002B0DD07B681B681969384B52
:101B50000B40002B08D17B681B68D968344B0B40C5
:101B6000002B01D1542300E0FC2302FB03F33B6173
:101B700021E03B68B3F1FF3F1AD03B68002B07D050
:101B8000FFF796FD02467B69D31A3A689A420FD254
:101B9000FB683A699A420BD97B689B6A43F004025E
:101BA0007B689A627B68002283F82420032330E05C
:101BB000FB680133FB60FB683A699A42D9D87B68BD
:101BC0001B686FF012021A607B689B6A43F4007214
:101BD0007B689A627B681B689B6803F46023B3F59B
:101BE000602F15D17B681B7B002B11D17B689B6A12
:101BF00023F480727B689A627B689B6A03F480534B
:101C0000002B05D17B689B6A43F001027B689A62D6
:101C1000002318461C37BD4690BD00BF00000020C1
:101C20002449922424499200922449129224490082
:101C30004992240080B584B000AF78600023FB7324
:101C40007B6893F82430012B01D10223A0E07B684C
:101C5000012283F82420786800F06EFA0346FB73B3
:101C6000FB7B002B40F08F807B689B6A23F47063C2
:101C700023F0010343F480727B689A627B681B68DF
:101C8000454A934205D1454B5B6803F47023002B12
:101C900015D17B689B6A23F480127B689A627B680B
:101CA0001B685B6803F48063002B26D07B689B6A0B
:101CB00023F4405343F480527B689A621DE07B68B2
:101CC0009B6A43F480127B689A627B681B68334A84
:101CD000934204D07B681B682F4A93420DD12F4B4F
:101CE0005B6803F48063002B07D07B689B6A23F456
:101CF000405343F480527B689A627B689B6A03F48A
:101D00008053002B06D07B68DB6A23F006027B68D9
:101D1000DA6202E07B680022DA627B68002283F8E4
:101D200024207B681B686FF002021A607B681B68C6
:101D30005A687B681B6842F020025A607B681B6807
:101D40009B6803F46023B3F5602F13D17B681B6895
:101D5000114A934205D1114B5B6803F47023002BA9
:101D600008D17B681B689A687B681B6842F4A002F4
:101D70009A600CE07B681B689A687B681B6842F479
:101D800080129A6003E07B68002283F82420FB7BAA
:101D900018461037BD4680BD002801400024014090
:101DA00080B483B000AF78607B681B68DB6C18463A
:101DB0000C37BD4680BC704780B584B000AF7860FA
:101DC0007B681B681B68FB607B681B685B68BB608B
:101DD000BB6803F02003002B3ED0FB6803F0020336
:101DE000002B39D07B689B6A03F01003002B05D1D0
:101DF0007B689B6A43F400727B689A627B681B680D
:101E00009B6803F46023B3F5602F1DD17B681B7BB7
:101E1000002B19D17B681B685A687B681B6822F00D
:101E200020025A607B689B6A23F480727B689A6206
:101E30007B689B6A03F48053002B05D17B689B6A07
:101E400043F001027B689A627868FFF717F97B68B4
:101E50001B686FF012021A60BB6803F08003002B4E
:101E60004DD0FB6803F00403002B48D07B689B6ACD
:101E700003F01003002B05D17B689B6A43F40052EA
:101E80007B689A627B681B689B6803F4E043B3F548
:101E9000E04F12D07B681B685B6803F48063002B03
:101EA00025D17B681B689B6803F46023B3F5602F22
:101EB0001DD17B681B7B002B19D17B681B685A687E
:101EC0007B681B6822F080025A607B689B6A23F45F
:101ED00080527B689A627B689B6A03F48073002B54
:101EE00005D17B689B6A43F001027B689A6278683F
:101EF00000F0BDF97B681B686FF00C021A60BB68CC
:101F000003F04003002B12D0FB6803F00103002B09
:101F10000DD07B689B6A43F480327B689A62786854
:101F200000F009F87B681B686FF001021A6000BFBF
:101F30001037BD4680BD80B483B000AF786000BF6D
:101F40000C37BD4680BC704780B485B000AF786068
:101F500039600023FB730023BB607B6893F8243057
:101F6000012B01D10223DCE07B68012283F82420CD
:101F70003B685B68062B1CD87B681B68596B3B6809
:101F80005A6813469B001344053B1F2202FA03F3D1
:101F9000DB4319403B6818683B685A6813469B004E
:101FA0001344053B00FA03F27B681B680A435A633B
:101FB0003CE03B685B680C2B1CD87B681B68196B8A
:101FC0003B685A6813469B001344233B1F2202FAC6
:101FD00003F3DB4319403B6818683B685A681346B3
:101FE0009B001344233B00FA03F27B681B680A43FF
:101FF0001A631BE07B681B68D96A3B685A68134602
:102000009B001344413B1F2202FA03F3DB431940B8
:102010003B6818683B685A6813469B001344413B71
:1020200000FA03F27B681B680A43DA623B681B68AC
:10203000092B1CD97B681B68D9683B681A68134652
:102040005B0013441E3B072202FA03F3DB431940F3
:102050003B6898683B681A6813465B0013441E3B54
:1020600000FA03F27B681B680A43DA6019E07B68B8
:102070001B6819693B681A6813465B001344072202
:1020800002FA03F3DB4319403B6898683B681A681F
:1020900013465B00134400FA03F27B681B680A4393
:1020A0001A613B681B68102B03D03B681B68112B1F
:1020B00032D17B681B681D4A934225D17B681B681F
:1020C0009B6803F40003002B26D17B681B689A6889
:1020D0007B681B6842F400029A603B681B68102B07
:1020E0001AD1134B1B68134AA2FB03239A0C134605
:1020F0009B0013445B00BB6002E0BB68013BBB601C
:10210000BB68002BF9D107E07B689B6A43F0200293
:102110007B689A620123FB737B68002283F824208A
:10212000FB7B18461437BD4680BC70470024014035
:102130000000002083DE1B4380B584B000AF7860D0
:102140000023FB600023BB607B681B689B6803F077
:102150000103012B40D07B681B689A687B681B6871
:1021600042F001029A601F4B1B681F4AA2FB032327
:102170009B0CBB6002E0BB68013BBB60BB68002BF3
:10218000F9D1FFF795FAF8601FE0FFF791FA0246E0
:10219000FB68D31A022B18D97B681B689B6803F075
:1021A0000103012B11D07B689B6A43F010027B680E
:1021B0009A627B68DB6A43F001027B68DA627B68C3
:1021C000002283F82420012307E07B681B689B68BA
:1021D00003F00103012BD8D1002318461037BD4668
:1021E00080BD00BF0000002083DE1B4380B584B0AB
:1021F00000AF78600023FB607B681B689B6803F07E
:102200000103012B2ED17B681B689A687B681B68D1
:1022100022F001029A60FFF74BFAF8601BE0FFF72B
:1022200047FA0246FB68D31A022B14D97B681B6855
:102230009B6803F00103012B0DD17B689B6A43F07F
:1022400010027B689A627B68DB6A43F001027B685C
:10225000DA62012307E07B681B689B6803F00103D7
:10226000012BDCD0002318461037BD4680BD80B45A
:1022700083B000AF786000BF0C37BD4680BC7047AC
:1022800080B485B000AF78607B6803F00703FB6023
:102290000C4BDB68BB60BA684FF6FF031340BB60B2
:1022A000FB681A02BB68134343F0BF6343F4003377
:1022B000BB60044ABB68D36000BF1437BD4680BC16
:1022C000704700BF00ED00E080B400AF044BDB6856
:1022D0001B0A03F007031846BD4680BC704700BFC9
:1022E00000ED00E080B483B000AF0346FB7197F9C6
:1022F0000730002B0BDBFB7903F01F02064997F92F
:1023000007305B09012000FA02F241F8232000BFE8
:102310000C37BD4680BC704700E100E080B483B05C
:1023200000AF03463960FB7197F90730002B0ADBD9
:102330003B68DAB20C4997F907301201D2B20B446C
:1023400083F800230AE03B68DAB20849FB7903F01E
:102350000F03043B1201D2B20B441A7600BF0C37B4
:10236000BD4680BC704700BF00E100E000ED00E02A
:1023700080B489B000AFF860B9607A60FB6803F0A0
:102380000703FB61FB69C3F10703042B28BF042388
:10239000BB61FB690433062B02D9FB69033B00E0F8
:1023A00000237B614FF0FF32BB6902FA03F3DA438B
:1023B000BB681A407B699A404FF0FF317B6901FA94
:1023C00003F3D9437B680B40134318462437BD46BB
:1023D00080BC704780B582B000AF78607B68013BFD
:1023E000B3F1807F01D301230FE00A4A7B68013BF0
:1023F00053600F214FF0FF30FFF790FF054B002295
:102400009A60044B07221A60002318460837BD461D
:1024100080BD00BF10E000E080B582B000AF786002
:102420007868FFF72DFF00BF0837BD4680BD80B537
:1024300086B000AF0346B9607A60FB7300237B610E
:10244000FFF742FF78617A68B9687869FFF790FF13
:10245000024697F90F3011461846FFF75FFF00BF9D
:102460001837BD4680BD80B582B000AF0346FB7112
:1024700097F907301846FFF735FF00BF0837BD460C
:1024800080BD80B582B000AF78607868FFF7A2FFAA
:10249000034618460837BD4680BD80B485B000AFFE
:1024A00078600023FB737B6893F82130DBB2022B4A
:1024B00008D07B6804229A637B68002283F820207E
:1024C000012320E07B681B681A687B681B6822F088
:1024D0000E021A607B681B681A687B681B6822F012
:1024E00001021A607B681A6C7B68DB6B012101FAC0
:1024F00002F25A607B68012283F821207B68002267
:1025000083F82020FB7B18461437BD4680BC7047FB
:1025100080B584B000AF78600023FB737B6893F8CC
:102520002130DBB2022B05D07B6804229A630123A1
:10253000FB7351E07B681B681A687B681B6822F09C
:102540000E021A607B681B681A687B681B6822F0A1
:1025500001021A607B681B68224A934229D07B687B
:102560001B68214A934222D07B681B681F4A934212
:102570001AD07B681B681E4A934212D07B681B6886
:102580001C4A93420AD07B681B681B4A934202D1C3
:102590004FF480130EE04FF080730BE04FF4803364
:1025A00008E04FF4805305E04FF4807302E01023FD
:1025B00000E00123114A53607B68012283F8212047
:1025C0007B68002283F820207B685B6B002B03D0A4
:1025D0007B685B6B78689847FB7B18461037BD4675
:1025E00080BD00BF080002401C00024030000240D5
:1025F00044000240580002406C00024000000240CB
:1026000080B48BB000AF7860396000237B62002318
:102610003B6269E101227B6A02FA03F3FB613B68DA
:102620001B68FA691340BB61BA69FB699A4240F0C2
:1026300058813B685B689A4A93425ED0984A9342BD
:1026400075D8984A934258D0964A93426FD8964A82
:10265000934252D0944A934269D8944A93424CD0C0
:10266000924A934263D8924A934246D0904A934208
:102670005DD8122B2AD8122B59D801A252F823F078
:10268000FB260008D5260008E726000829270008B1
:102690002F2700082F2700082F2700082F270008C2
:1026A0002F2700082F2700082F2700082F270008B2
:1026B0002F2700082F2700082F2700082F270008A2
:1026C0002F270008DD260008F1260008794A9342EA
:1026D00013D02CE03B68DB683B6229E03B68DB6899
:1026E00004333B6224E03B68DB6808333B621FE055
:1026F0003B68DB680C333B621AE03B689B68002B4D
:1027000002D104233B6213E03B689B68012B05D197
:1027100008233B627B68FA691A6109E008233B627F
:102720007B68FA695A6103E000233B6200E000BF66
:10273000BB69FF2B01D87B6801E07B6804337B61B8
:10274000BB69FF2B02D87B6A9B0002E07B6A083BD7
:102750009B003B617B691A680F213B6901FA03F317
:10276000DB431A40396A3B6901FA03F31A437B6978
:102770001A603B685B6803F08053002B00F0B18067
:102780004D4B9B694C4A43F0010393614A4B9B6953
:1027900003F00103BB60BB68484A7B6A9B080233B5
:1027A00052F82330FB607B6A03F003039B000F2287
:1027B00002FA03F3DB43FA681340FB607B68404A8C
:1027C000934213D07B683F4A93420DD07B683E4AC8
:1027D000934207D07B683D4A934201D1032306E030
:1027E000042304E0022302E0012300E000237A6ACC
:1027F00002F0030292009340FA681343FB602F49F2
:102800007B6A9B080233FA6841F823203B685B68C7
:1028100003F48013002B06D02D4B9A682C49BB691A
:1028200013438B6006E02A4B9A68BB69DB43284957
:1028300013408B603B685B6803F40013002B06D0E9
:10284000234BDA682249BB691343CB6006E0204B77
:10285000DA68BB69DB431E491340CB603B685B68A9
:1028600003F40033002B06D0194B5A681849BB6992
:1028700013434B6006E0164B5A68BB69DB431449AF
:1028800013404B603B685B6803F48033002B21D01E
:102890000F4B1A680E49BB6913430B6021E000BF60
:1028A0000000321000003110000022100000211042
:1028B0000000121000001110001002400000014042
:1028C00000080140000C01400010014000140140CC
:1028D000000401400B4B1A68BB69DB4309491340F4
:1028E0000B607B6A01337B623B681A687B6A22FA61
:1028F00003F3002B7FF48EAE00BF00BF2C37BD4624
:1029000080BC70470004014080B483B000AF7860A1
:102910000B467B8013467B707B78002B03D07A8834
:102920007B681A6103E07B881A047B681A6100BF28
:102930000C37BD4680BC704780B586B000AF78606C
:102940007B68002B01D1012372E27B681B6803F0D6
:102950000103002B00F08780924B5B6803F00C03AF
:10296000042B0CD08F4B5B6803F00C03082B12D1A7
:102970008C4B5B6803F48033B3F5803F0BD1894BFC
:102980001B6803F40033002B6CD07B685B68002B62
:1029900068D101234CE27B685B68B3F5803F06D1C8
:1029A000804B1B687F4A43F4803313602EE07B68C2
:1029B0005B68002B0CD17B4B1B687A4A23F4803375
:1029C0001360784B1B68774A23F4802313601DE063
:1029D0007B685B68B3F5A02F0CD1724B1B68714A02
:1029E00043F4802313606F4B1B686E4A43F48033BB
:1029F00013600BE06B4B1B686A4A23F4803313604F
:102A0000684B1B68674A23F4802313607B685B680C
:102A1000002B13D0FEF74CFE386108E0FEF748FEAD
:102A200002463B69D31A642B01D9032300E25D4BB4
:102A30001B6803F40033002BF0D014E0FEF738FEDF
:102A4000386108E0FEF734FE02463B69D31A642B76
:102A500001D90323ECE1534B1B6803F40033002B33
:102A6000F0D100E000BF7B681B6803F00203002B7D
:102A700063D04C4B5B6803F00C03002B0BD0494B2D
:102A80005B6803F00C03082B1CD1464B5B6803F416
:102A90008033002B16D1434B1B6803F00203002B3D
:102AA00005D07B681B69012B01D00123C0E13D4BA0
:102AB0001B6823F0F8027B685B69DB00394913432C
:102AC0000B603AE07B681B69002B20D0364B01225B
:102AD0001A60FEF7EDFD386108E0FEF7E9FD0246F9
:102AE0003B69D31A022B01D90323A1E12D4B1B68AB
:102AF00003F00203002BF0D02A4B1B6823F0F802EE
:102B00007B685B69DB00274913430B6015E0264BAC
:102B100000221A60FEF7CCFD386108E0FEF7C8FD20
:102B200002463B69D31A022B01D9032380E11D4BD6
:102B30001B6803F00203002BF0D17B681B6803F0D5
:102B40000803002B3AD07B689B69002B19D0174BE8
:102B500001221A60FEF7ACFD386108E0FEF7A8FD1F
:102B600002463B69D31A022B01D9032360E10D4BC6
:102B70005B6A03F00203002BF0D0012000F0CEFAD4
:102B80001CE00A4B00221A60FEF792FD38610FE04C
:102B9000FEF78EFD02463B69D31A022B08D90323A8
:102BA00046E100BF00100240000042428004424261
:102BB000924B5B6A03F00203002BE9D17B681B6830
:102BC00003F00403002B00F0A6800023FB758B4B61
:102BD000DB6903F08053002B0DD1884BDB69874AFA
:102BE00043F08053D361854BDB6903F08053BB60B6
:102BF000BB680123FB75824B1B6803F48073002BB9
:102C000018D17F4B1B687E4A43F480731360FEF734
:102C10004FFD386108E0FEF74BFD02463B69D31AD1
:102C2000642B01D9032303E1754B1B6803F4807304
:102C3000002BF0D07B68DB68012B06D16F4B1B6A41
:102C40006E4A43F0010313622DE07B68DB68002BC2
:102C50000CD16A4B1B6A694A23F001031362674B6C
:102C60001B6A664A23F0040313621CE07B68DB687E
:102C7000052B0CD1614B1B6A604A43F004031362BD
:102C80005E4B1B6A5D4A43F0010313620BE05B4B32
:102C90001B6A5A4A23F001031362584B1B6A574AB6
:102CA00023F0040313627B68DB68002B15D0FEF76A
:102CB000FFFC38610AE0FEF7FBFC02463B69D31AD1
:102CC00041F28832934201D90323B1E04B4B1B6A96
:102CD00003F00203002BEED014E0FEF7E9FC3861AC
:102CE0000AE0FEF7E5FC02463B69D31A41F288325E
:102CF000934201D903239BE0404B1B6A03F002037C
:102D0000002BEED1FB7D012B05D13C4BDB693B4A0F
:102D100023F08053D3617B68DB69002B00F0878050
:102D2000364B5B6803F00C03082B61D07B68DB69D2
:102D3000022B46D1334B00221A60FEF7B9FC3861F2
:102D400008E0FEF7B5FC02463B69D31A022B01D915
:102D500003236DE0294B1B6803F00073002BF0D1B7
:102D60007B681B6AB3F5803F08D1244B5B6823F472
:102D700000327B689B68214913434B601F4B5B68A3
:102D800023F474127B68196A7B685B6A0B431B49E6
:102D900013434B601B4B01221A60FEF789FC38611C
:102DA00008E0FEF785FC02463B69D31A022B01D9E5
:102DB00003233DE0114B1B6803F00073002BF0D0A0
:102DC00035E0104B00221A60FEF772FC386108E013
:102DD000FEF76EFC02463B69D31A022B01D903238E
:102DE00026E0064B1B6803F00073002BF0D11EE0B9
:102DF0007B68DB69012B07D1012319E00010024039
:102E000000700040600042420B4B5B68FB60FB6857
:102E100003F480327B681B6A9A4206D1FB6803F494
:102E200070127B685B6A9A4201D0012300E00023A4
:102E300018461837BD4680BD0010024080B584B0EA
:102E400000AF786039607B68002B01D10123D0E0AE
:102E50006A4B1B6803F007033A689A4210D9674B24
:102E60001B6823F0070265493B6813430B60634B03
:102E70001B6803F007033A689A4201D00123B8E0C7
:102E80007B681B6803F00203002B20D07B681B6863
:102E900003F00403002B05D0594B5B68584A43F4F8
:102EA000E06353607B681B6803F00803002B05D0C8
:102EB000534B5B68524A43F460535360504B5B681A
:102EC00023F0F0027B689B684D4913434B607B689D
:102ED0001B6803F00103002B40D07B685B68012B6B
:102EE00007D1474B1B6803F40033002B15D1012396
:102EF0007FE07B685B68022B07D1414B1B6803F0C6
:102F00000073002B09D1012373E03D4B1B6803F0D4
:102F10000203002B01D101236BE0394B5B6823F0E6
:102F200003027B685B68364913434B60FEF7C0FBC6
:102F3000F8600AE0FEF7BCFB0246FB68D31A41F2D8
:102F40008832934201D9032353E02D4B5B6803F091
:102F50000C027B685B689B009A42EBD1274B1B6895
:102F600003F007033A689A4210D2244B1B6823F0FF
:102F7000070222493B6813430B60204B1B6803F098
:102F800007033A689A4201D0012332E07B681B684C
:102F900003F00403002B08D0194B5B6823F4E062B4
:102FA0007B68DB68164913434B607B681B6803F042
:102FB0000803002B09D0124B5B6823F460527B6836
:102FC0001B69DB000E4913434B6000F021F80246F9
:102FD0000B4B5B681B0903F00F030A49CB5C22FA19
:102FE00003F3094A1360094B1B681846FEF71EFBE2
:102FF000002318461037BD4680BD00BF00200240A8
:10300000001002407C960008000000200400002010
:1030100080B487B000AF0023FB600023BB600023B7
:103020007B6100237B6000233B611E4B5B68FB6080
:10303000FB6803F00C03042B02D0082B03D027E01D
:10304000194B3B6127E0FB689B0C03F00F03174A09
:10305000D35C7B60FB6803F48033002B10D0114BF2
:103060005B685B0C03F00103114AD35CBB607B68B7
:103070000D4A03FB02F2BB68B2FBF3F37B6104E091
:103080007B680C4A02FB03F37B617B693B6102E0D6
:10309000054B3B6100BF3B6918461C37BD4680BCF1
:1030A000704700BF0010024000127A00949600089A
:1030B000A496000800093D0080B400AF024B1B68D5
:1030C0001846BD4680BC70470000002080B500AFA8
:1030D000FFF7F2FF0246054B5B681B0A03F007038C
:1030E0000349CB5C22FA03F3184680BD001002406E
:1030F0008C96000880B500AFFFF7DEFF0246054B57
:103100005B68DB0A03F007030349CB5C22FA03F395
:10311000184680BD001002408C96000880B485B02F
:1031200000AF78600A4B1B680A4AA2FB03235B0AC4
:103130007A6802FB03F3FB6000BFFB685A1EFA606B
:10314000002BF9D100BF00BF1437BD4680BC7047CB
:1031500000000020D34D621080B586B000AF7860CB
:1031600000233B610023FB607B681B6803F00103C5
:10317000002B7DD00023FB754F4BDB6903F08053A0
:10318000002B0DD14C4BDB694B4A43F08053D3618C
:10319000494BDB6903F08053BB60BB680123FB75BF
:1031A000464B1B6803F48073002B18D1434B1B68FC
:1031B000424A43F480731360FEF77AFA386108E0FC
:1031C000FEF776FA02463B69D31A642B01D9032332
:1031D0006DE03A4B1B6803F48073002BF0D0364B44
:1031E0001B6A03F44073FB60FB68002B2ED07B68E6
:1031F0005B6803F44073FA689A4227D02E4B1B6A2F
:1032000023F44073FB602E4B01221A602C4B0022EA
:103210001A60294AFB681362FB6803F00103002B64
:1032200014D0FEF745FA38610AE0FEF741FA02468B
:103230003B69D31A41F28832934201D9032336E025
:103240001D4B1B6A03F00203002BEED01A4B1B6AC6
:1032500023F440727B685B68174913430B62FB7D64
:10326000012B05D1144BDB69134A23F08053D36142
:103270007B681B6803F00203002B08D00E4B5B68D1
:1032800023F440427B689B680B4913434B607B6887
:103290001B6803F01003002B08D0074B5B6823F476
:1032A00080027B68DB68044913434B6000231846A7
:1032B0001837BD4680BD00BF0010024000700040BE
:1032C0004004424280B588B000AF786000237B6143
:1032D0000023FB6100233B610023FB600023BB61F3
:1032E0007B68102B0AD07B68102B00F28A807B68E9
:1032F000012B45D07B68022B75D082E0464B5B6882
:10330000FB60454B1B6803F08073002B7BD0FB6890
:103310009B0C03F00F03414AD35C3B61FB6803F451
:103320008033002B15D03C4B5B685B0C03F0010332
:103330003B4AD35C7B61FB6803F48033002B0DD0E8
:10334000384A7B69B2FBF3F23B6902FB03F3FB6192
:1033500004E03B69344A02FB03F3FB612E4B5B68DC
:1033600003F48003B3F5800F02D1FB69BB614AE02F
:10337000FB695B002D4AA2FB03235B08BB6142E0B3
:10338000254B1B6AFB60FB6803F44073B3F5807F39
:1033900008D1FB6803F00203002B03D04FF4004375
:1033A000BB611FE0FB6803F44073B3F5007F09D1F4
:1033B000194B5B6A03F00203002B03D049F640432C
:1033C000BB610FE0FB6803F44073B3F5407F1CD191
:1033D000114B1B6803F40033002B16D04FF224432B
:1033E000BB6112E011E0FFF785FE02460A4B5B6805
:1033F0009B0B03F0030301335B00B2FBF3F3BB61F0
:1034000004E000BF02E000BF00E000BFBB69184657
:103410002037BD4680BD00BF00100240A8960008BE
:10342000B896000800127A0000093D00ABAAAAAACB
:1034300080B582B000AF78607B68002B01D101239A
:1034400041E07B6893F83D30DBB2002B06D17B680E
:10345000002283F83C207868FDF7D2FE7B680222C8
:1034600083F83D207B681A687B6804331946104650
:1034700000F056FC7B68012283F846207B6801221D
:1034800083F83E207B68012283F83F207B6801227D
:1034900083F840207B68012283F841207B68012269
:1034A00083F842207B68012283F843207B68012255
:1034B00083F844207B68012283F845207B68012241
:1034C00083F83D20002318460837BD4680BD000024
:1034D00080B485B000AF78607B6893F83D30DBB294
:1034E000012B01D0012332E07B68022283F83D20CA
:1034F0007B681B68184A93420ED07B681B68B3F147
:10350000804F09D07B681B68144A934204D07B68C3
:103510001B68134A934211D17B681B689B6803F0B8
:103520000703FB60FB68062B10D07B681B681A68DA
:103530007B681B6842F001021A6007E07B681B6829
:103540001A687B681B6842F001021A600023184663
:103550001437BD4680BC7047002C01400004004079
:103560000008004080B582B000AF78607B68002B17
:1035700001D1012341E07B6893F83D30DBB2002BA1
:1035800006D17B68002283F83C207868FDF754FE62
:103590007B68022283F83D207B681A687B680433CD
:1035A0001946104600F0BCFB7B68012283F84620D8
:1035B0007B68012283F83E207B68012283F83F204C
:1035C0007B68012283F840207B68012283F8412038
:1035D0007B68012283F842207B68012283F8432024
:1035E0007B68012283F844207B68012283F8452010
:1035F0007B68012283F83D20002318460837BD462A
:1036000080BD000080B584B000AF786039600023D1
:10361000FB733B68002B09D17B6893F83E30DBB22B
:10362000012B14BF01230023DBB222E03B68042BF3
:1036300009D17B6893F83F30DBB2012B14BF012323
:103640000023DBB215E03B68082B09D17B6893F8B7
:103650004030DBB2012B14BF01230023DBB208E0B2
:103660007B6893F84130DBB2012B14BF01230023A8
:10367000DBB2002B01D00123A9E03B68002B04D171
:103680007B68022283F83E2013E03B68042B04D1C0
:103690007B68022283F83F200BE03B68082B04D1B3
:1036A0007B68022283F8402003E07B68022283F8D3
:1036B00041203B680C2B41D801A252F823F000BFF7
:1036C000F53600083D3700083D3700083D37000853
:1036D000073700083D3700083D3700083D37000830
:1036E000193700083D3700083D3700083D3700080E
:1036F0002B3700087B681B68DA687B681B6842F020
:103700000202DA601DE07B681B68DA687B681B6870
:1037100042F00402DA6014E07B681B68DA687B68B8
:103720001B6842F00802DA600BE07B681B68DA680D
:103730007B681B6842F01002DA6002E00123FB7331
:1037400000BFFB7B002B41D17B681B6801223968DD
:10375000184600F071FD7B681B681F4A934207D131
:103760007B681B685A6C7B681B6842F400425A6491
:103770007B681B68184A93420ED07B681B68B3F1C4
:10378000804F09D07B681B68144A934204D07B6841
:103790001B68134A934211D17B681B689B6803F036
:1037A0000703BB60BB68062B10D07B681B681A68D8
:1037B0007B681B6842F001021A6007E07B681B68A7
:1037C0001A687B681B6842F001021A60FB7B18468E
:1037D0001037BD4680BD00BF002C014000040040F2
:1037E0000008004080B584B000AF78607B681B683B
:1037F000DB68FB607B681B681B69BB60BB6803F010
:103800000203002B20D0FB6803F00203002B1BD027
:103810007B681B686FF002021A617B6801221A77CD
:103820007B681B689B6903F00303002B03D0786857
:1038300000F063FA05E0786800F056FA7868FDF762
:103840009FFB7B6800221A77BB6803F00403002B00
:1038500020D0FB6803F00403002B1BD07B681B689F
:103860006FF004021A617B6802221A777B681B687A
:103870009B6903F44073002B03D0786800F03DFA95
:1038800005E0786800F030FA7868FDF779FB7B682E
:1038900000221A77BB6803F00803002B20D0FB68D6
:1038A00003F00803002B1BD07B681B686FF0080235
:1038B0001A617B6804221A777B681B68DB6903F056
:1038C0000303002B03D0786800F017FA05E078684E
:1038D00000F00AFA7868FDF753FB7B6800221A773C
:1038E000BB6803F01003002B20D0FB6803F010032B
:1038F000002B1BD07B681B686FF010021A617B687D
:1039000008221A777B681B68DB6903F44073002B7D
:1039100003D0786800F0F1F905E0786800F0E4F988
:103920007868FDF72DFB7B6800221A77BB6803F0EF
:103930000103002B0CD0FB6803F00103002B07D020
:103940007B681B686FF001021A61786800F0C3F9A8
:10395000BB6803F08003002B0CD0FB6803F08003EE
:10396000002B07D07B681B686FF080021A617868B3
:1039700000F0EDFCBB6803F04003002B0CD0FB68AB
:1039800003F04003002B07D07B681B686FF04002F8
:103990001A61786800F0BAF9BB6803F02003002BC5
:1039A0000CD0FB6803F02003002B07D07B681B685A
:1039B0006FF020021A61786800F0C0FC00BF103779
:1039C000BD4680BD80B586B000AFF860B9607A6052
:1039D0000023FB75FB6893F83C30012B01D10223D7
:1039E000AEE0FB68012283F83C207B680C2B00F2E0
:1039F0009F8001A252F823F02D3A0008313B0008C5
:103A0000313B0008313B00086D3A0008313B0008AB
:103A1000313B0008313B0008AF3A0008313B000859
:103A2000313B0008313B0008EF3A0008FB681B6897
:103A3000B968184600F0E2F9FB681B689A69FB68F0
:103A40001B6842F008029A61FB681B689A69FB6870
:103A50001B6822F004029A61FB681B689969BB68C5
:103A60001A69FB681B680A439A6164E0FB681B687B
:103A7000B968184600F028FAFB681B689A69FB6869
:103A80001B6842F400629A61FB681B689A69FB68D4
:103A90001B6822F480629A61FB681B689969BB68A5
:103AA0001B691A02FB681B680A439A6143E0FB68C2
:103AB0001B68B968184600F071FAFB681B68DA6980
:103AC000FB681B6842F00802DA61FB681B68DA6970
:103AD000FB681B6822F00402DA61FB681B68D96985
:103AE000BB681A69FB681B680A43DA6123E0FB685C
:103AF0001B68B968184600F0BBFAFB681B68DA69F6
:103B0000FB681B6842F40062DA61FB681B68DA69D3
:103B1000FB681B6822F48062DA61FB681B68D96964
:103B2000BB681B691A02FB681B680A43DA6102E082
:103B30000123FB7500BFFB68002283F83C20FB7D5E
:103B400018461837BD4680BD80B584B000AF786098
:103B500039600023FB737B6893F83C30012B01D163
:103B60000223B4E07B68012283F83C207B680222B8
:103B700083F83D207B681B689B68BB60BB6823F0B3
:103B80007703BB60BB6823F47F43BB607B681B6823
:103B9000BA689A603B681B68B3F5005F3ED0B3F526
:103BA000005F00F28780B3F5805F00F08680B3F598
:103BB000805F7FD8702B1AD0702B7BD8602B50D0B1
:103BC000602B77D8502B3CD0502B73D8402B58D03B
:103BD000402B6FD8302B64D0302B6BD8202B60D08B
:103BE000202B67D8002B5CD0102B5AD062E07B686A
:103BF00018683B6899683B685A683B68DB6800F066
:103C0000FCFA7B681B689B68BB60BB6843F077036A
:103C1000BB607B681B68BA689A604FE07B68186875
:103C20003B6899683B685A683B68DB6800F0E5FAD6
:103C30007B681B689A687B681B6842F480429A60C4
:103C40003CE07B6818683B6859683B68DB681A464B
:103C500000F05CFA7B681B685021184600F0B3FA4C
:103C60002CE07B6818683B6859683B68DB681A463B
:103C700000F07AFA7B681B686021184600F0A3FA0E
:103C80001CE07B6818683B6859683B68DB681A462B
:103C900000F03CFA7B681B684021184600F093FA5C
:103CA0000CE07B681A683B681B681946104600F0F8
:103CB0008AFA03E00123FB7300E000BF7B68012266
:103CC00083F83D207B68002283F83C20FB7B18466C
:103CD0001037BD4680BD80B483B000AF786000BFB0
:103CE0000C37BD4680BC704780B483B000AF7860AD
:103CF00000BF0C37BD4680BC704780B483B000AFB6
:103D0000786000BF0C37BD4680BC704780B483B07C
:103D100000AF786000BF0C37BD4680BC7047000024
:103D200080B485B000AF786039607B681B68FB6049
:103D30007B682F4A93420BD07B68B3F1804F07D04A
:103D40007B682C4A934203D07B682B4A934208D16C
:103D5000FB6823F07003FB603B685B68FA68134301
:103D6000FB607B68224A93420BD07B68B3F1804FA3
:103D700007D07B681F4A934203D07B681E4A934258
:103D800008D1FB6823F44073FB603B68DB68FA688A
:103D90001343FB60FB6823F080023B685B691343BD
:103DA000FB607B68FA681A603B689A687B68DA6235
:103DB0003B681A687B689A627B680D4A934203D11C
:103DC0003B681A697B681A637B6801225A617B68C9
:103DD0001B6903F00103002B05D07B681B6923F0EE
:103DE00001027B681A6100BF1437BD4680BC704772
:103DF000002C0140000400400008004080B487B05F
:103E000000AF786039607B681B6A7B617B681B6AE6
:103E100023F001027B681A627B685B683B617B6808
:103E20009B69FB60FB6823F07003FB60FB6823F079
:103E30000303FB603B681B68FA681343FB607B6904
:103E400023F002037B613B689B687A6913437B61C3
:103E50007B681C4A93420CD17B6923F008037B6189
:103E60003B68DB687A6913437B617B6923F0040359
:103E70007B617B68134A934211D13B6923F48073C1
:103E80003B613B6923F400733B613B685B693A69C2
:103E900013433B613B689B693A6913433B617B6811
:103EA0003A695A607B68FA689A613B685A687B682D
:103EB0005A637B687A691A6200BF1C37BD4680BCB2
:103EC000704700BF002C014080B487B000AF78601D
:103ED00039607B681B6A7B617B681B6A23F0100278
:103EE0007B681A627B685B683B617B689B69FB60EF
:103EF000FB6823F4E043FB60FB6823F44073FB6042
:103F00003B681B681B02FA681343FB607B6923F064
:103F100020037B613B689B681B017A6913437B61CB
:103F20007B681D4A93420DD17B6923F080037B613E
:103F30003B68DB681B017A6913437B617B6923F073
:103F400040037B617B68144A934213D13B6923F49D
:103F500080633B613B6923F400633B613B685B69C1
:103F60009B003A6913433B613B689B699B003A693C
:103F700013433B617B683A695A607B68FA689A61CF
:103F80003B685A687B689A637B687A691A6200BFEB
:103F90001C37BD4680BC7047002C014080B487B000
:103FA00000AF786039607B681B6A7B617B681B6A45
:103FB00023F480727B681A627B685B683B617B6874
:103FC000DB69FB60FB6823F07003FB60FB6823F098
:103FD0000303FB603B681B68FA681343FB607B6963
:103FE00023F400737B613B689B681B027A6913436F
:103FF0007B617B681D4A93420DD17B6923F400638A
:104000007B613B68DB681B027A6913437B617B69D8
:1040100023F480637B617B68144A934213D13B692C
:1040200023F480533B613B6923F400533B613B68BD
:104030005B691B013A6913433B613B689B691B0148
:104040003A6913433B617B683A695A607B68FA6856
:10405000DA613B685A687B68DA637B687A691A625E
:1040600000BF1C37BD4680BC704700BF002C01401C
:1040700080B487B000AF786039607B681B6A3B61B1
:104080007B681B6A23F480527B681A627B685B68DA
:104090007B617B68DB69FB60FB6823F4E043FB60CA
:1040A000FB6823F44073FB603B681B681B02FA68E3
:1040B0001343FB603B6923F400533B613B689B68FF
:1040C0001B033A6913433B617B680F4A934209D152
:1040D0007B6923F480437B613B685B699B017A6960
:1040E00013437B617B687A695A607B68FA68DA619E
:1040F0003B685A687B681A647B683A691A6200BF39
:104100001C37BD4680BC7047002C014080B487B08E
:1041100000AFF860B9607A60FB681B6A7B61FB687E
:104120001B6A23F00102FB681A62FB689B693B6112
:104130003B6923F0F0033B617B681B013A69134341
:104140003B617B6923F00A037B617A69BB68134397
:104150007B61FB683A699A61FB687A691A6200BF01
:104160001C37BD4680BC704780B487B000AFF86094
:10417000B9607A60FB681B6A7B61FB681B6A23F08D
:104180001002FB681A62FB689B693B613B6923F480
:1041900070433B617B681B033A6913433B617B6956
:1041A00023F0A0037B61BB681B017A6913437B6129
:1041B000FB683A699A61FB687A691A6200BF1C372A
:1041C000BD4680BC704780B485B000AF7860396070
:1041D0007B689B68FB60FB6823F07003FB603A68B8
:1041E000FB68134343F00703FB607B68FA689A603F
:1041F00000BF1437BD4680BC704780B487B000AFA5
:10420000F860B9607A603B60FB689B687B617B69A2
:1042100023F47F437B613B681A027B681A43BB68C7
:1042200013437A6913437B61FB687A699A6000BF24
:104230001C37BD4680BC704780B487B000AFF860C3
:10424000B9607A60BB6803F01F03012202FA03F32E
:104250007B61FB681A6A7B69DB431A40FB681A6260
:10426000FB681A6ABB6803F01F03796801FA03F35D
:104270001A43FB681A6200BF1C37BD4680BC7047FA
:1042800080B485B000AF786039607B6893F83C30CB
:10429000012B01D1022346E07B68012283F83C20F8
:1042A0007B68022283F83D207B681B685B68FB60AB
:1042B0007B681B689B68BB60FB6823F07003FB6036
:1042C0003B681B68FA681343FB607B681B68FA68ED
:1042D0005A607B681B68164A93420ED07B681B6845
:1042E000B3F1804F09D07B681B68124A934204D017
:1042F0007B681B68104A93420CD1BB6823F0800393
:10430000BB603B685B68BA681343BB607B681B6833
:10431000BA689A607B68012283F83D207B6800229E
:1043200083F83C20002318461437BD4680BC7047F4
:10433000002C0140000400400008004080B483B01D
:1043400000AF786000BF0C37BD4680BC704780B4BA
:1043500083B000AF786000BF0C37BD4680BC7047AB
:1043600080B582B000AF78607B68002B01D101235B
:1043700042E07B6893F84130DBB2002B06D17B68CA
:10438000002283F840207868FCF7AEFF7B68242287
:1043900083F841207B681B68DA687B681B6822F41D
:1043A0000052DA60786800F063FD7B681B681A6968
:1043B0007B681B6822F490421A617B681B685A690B
:1043C0007B681B6822F02A025A617B681B68DA68E6
:1043D0007B681B6842F40052DA607B6800225A64F2
:1043E0007B68202283F841207B68202283F84220CA
:1043F0007B6800225A63002318460837BD4680BDFB
:1044000080B58AB002AFF860B9603B601346FB80AC
:1044100000237B61FB6893F84130DBB2202B75D120
:10442000BB68002B02D0FB88002B01D101236EE07A
:10443000FB6800225A64FB68212283F84120FDF7C3
:1044400037F97861FB68FA889A84FB68FA88DA841D
:10445000FB689B68B3F5805F08D1FB681B69002B84
:1044600004D10023FB61BB68BB6103E0BB68FB6157
:104470000023BB612EE03B6800937B690022802112
:10448000F86800F001FB0346002B05D0FB682022F2
:1044900083F8412003233AE0FB69002B0BD1BB6971
:1044A0001B881A46FB681B68C2F308025A60BB6986
:1044B0000233BB6107E0FB691A78FB681B685A602E
:1044C000FB690133FB61FB68DB8C9BB2013B9AB259
:1044D000FB68DA84FB68DB8C9BB2002BCBD13B689A
:1044E00000937B6900224021F86800F0CDFA034672
:1044F000002B05D0FB68202283F84120032306E02F
:10450000FB68202283F84120002300E002231846A4
:104510002037BD4680BD000080B5BAB000AF7860DE
:104520007B681B681B68C7F8E4307B681B68DB6826
:10453000C7F8E0307B681B685B69C7F8DC30002394
:10454000C7F8D8300023C7F8D430D7F8E43003F0E8
:104550000F03C7F8D830D7F8D830002B0FD1D7F8D1
:10456000E43003F02003002B09D0D7F8E03003F04B
:104570002003002B03D0786800F0BCFB5BE2D7F887
:10458000D830002B00F0DE80D7F8DC3003F00103D8
:10459000002B06D1D7F8E03003F49073002B00F025
:1045A000D180D7F8E43003F00103002B0BD0D7F80B
:1045B000E03003F48073002B05D07B685B6C43F024
:1045C00001027B685A64D7F8E43003F00403002B3F
:1045D0000BD0D7F8DC3003F00103002B05D07B684B
:1045E0005B6C43F002027B685A64D7F8E43003F056
:1045F0000203002B0BD0D7F8DC3003F00103002BB3
:1046000005D07B685B6C43F004027B685A64D7F882
:10461000E43003F00803002B11D0D7F8E03003F0AA
:104620002003002B05D1D7F8DC3003F00103002B69
:1046300005D07B685B6C43F008027B685A647B683A
:104640005B6C002B00F0F281D7F8E43003F020031C
:10465000002B08D0D7F8E03003F02003002B02D065
:10466000786800F047FB7B681B685B6903F04003D8
:10467000002B14BF01230023DBB2C7F8D4307B68C2
:104680005B6C03F00803002B03D1D7F8D430002B68
:104690004FD0786800F051FA7B681B685B6903F0C3
:1046A0004003002B41D07B681B681433C7F89C3053
:1046B000D7F89C3053E8003FC7F89830D7F89830C7
:1046C00023F04003C7F8D0307B681B681433D7F859
:1046D000D020C7F8A820C7F8A430D7F8A410D7F87E
:1046E000A82041E80023C7F8A030D7F8A030002B5D
:1046F000D9D17B68DB6B002B13D07B68DB6B7E4AE8
:104700005A637B68DB6B1846FDF702FF0346002BFC
:1047100016D07B68DB6B5B6B7A68D26B1046984770
:104720000EE0786800F09CF90AE0786800F098F9EB
:1047300006E0786800F094F97B6800225A6475E11D
:1047400000BF73E17B681B6B012B40F04F81D7F8F2
:10475000E43003F01003002B00F04881D7F8E0307C
:1047600003F01003002B00F041810023BB607B6845
:104770001B681B68BB607B681B685B68BB60BB68B1
:104780007B681B685B6903F04003002B00F0B68078
:104790007B68DB6B1B685B68A7F8BE30B7F8BE3080
:1047A000002B00F045817B689B8DB7F8BE209A42B4
:1047B00080F03E817B68B7F8BE20DA857B68DB6BD2
:1047C0009B69202B00F088807B681B680C33C7F83E
:1047D0008830D7F8883053E8003FC7F88430D7F8DE
:1047E000843023F48073C7F8B8307B681B680C33BF
:1047F000D7F8B820C7F89420C7F89030D7F89010B1
:10480000D7F8942041E80023C7F88C30D7F88C30D3
:10481000002BD9D17B681B6814337B677B6F53E80F
:10482000003F3B673B6F23F00103C7F8B4307B6860
:104830001B681433D7F8B420C7F88020FB67F96FE2
:10484000D7F8802041E80023BB67BB6F002BE1D184
:104850007B681B6814333B663B6E53E8003FFB6587
:10486000FB6D23F04003C7F8B0307B681B6814333E
:10487000D7F8B020FA66BB66B96EFA6E41E800233D
:104880007B667B6E002BE3D17B68202283F842207D
:104890007B6800221A637B681B680C33FB64FB6C2B
:1048A00053E8003FBB64BB6C23F01003C7F8AC3087
:1048B0007B681B680C33D7F8AC20BA657B65796DD3
:1048C000BA6D41E800233B653B6D002BE3D17B686B
:1048D000DB6B1846FDF7E1FD7B6802225A637B68BB
:1048E0009A8D7B68DB8D9BB2D31A9BB21946786890
:1048F00000F0BFF89CE000BFFF4B00087B689A8D7A
:104900007B68DB8D9BB2D31AA7F8CE307B68DB8D3A
:104910009BB2002B00F08E80B7F8CE30002B00F059
:1049200089807B681B680C33BB63BB6B53E8003F1B
:104930007B637B6B23F49073C7F8C8307B681B687C
:104940000C33D7F8C8207A643B64396C7A6C41E840
:104950000023FB63FB6B002BE3D17B681B681433E4
:104960007B627B6A53E8003F3B623B6A23F00103B2
:10497000C7F8C4307B681B681433D7F8C4203A6387
:10498000FB62F96A3A6B41E80023BB62BB6A002B09
:10499000E3D17B68202283F842207B6800221A63DF
:1049A0007B681B680C333B613B6953E8003FFB604D
:1049B000FB6823F01003C7F8C0307B681B680C331A
:1049C000D7F8C020FA61BB61B969FA6941E80023F0
:1049D0007B617B69002BE3D17B6802225A63B7F8C5
:1049E000CE301946786800F044F823E0D7F8E43078
:1049F00003F08003002B09D0D7F8E03003F08003E8
:104A0000002B03D0786800F00EF914E0D7F8E430FA
:104A100003F04003002B0ED0D7F8E03003F0400342
:104A2000002B08D0786800F04DF904E000BF02E0E8
:104A300000BF00E000BFE837BD4680BD80B483B052
:104A400000AF786000BF0C37BD4680BC704780B4B3
:104A500083B000AF786000BF0C37BD4680BC7047A4
:104A600080B483B000AF786000BF0C37BD4680BC17
:104A7000704780B483B000AF78600B467B8000BF86
:104A80000C37BD4680BC704780B586B000AFF8607B
:104A9000B9603B601346FB713BE03B6AB3F1FF3FFB
:104AA00037D0FCF705FE02463B68D31A3A6A9A42B1
:104AB00002D33B6A002B01D103233AE0FB681B6859
:104AC000DB6803F00403002B23D0BB68802B20D0CD
:104AD000BB68402B1DD0FB681B681B6803F00803F4
:104AE000082B16D100237B61FB681B681B687B6168
:104AF000FB681B685B687B617B69F86800F01DF8E8
:104B0000FB6808225A64FB68002283F840200123D6
:104B10000FE0FB681B681A68BB681340BA689A42CA
:104B20000CBF01230023DBB21A46FB799A42B4D0B2
:104B3000002318461837BD4680BD80B495B000AF3D
:104B400078607B681B680C337B637B6B53E8003FAA
:104B50003B633B6B23F49073FB647B681B680C33F3
:104B6000FA6C3A64FB63F96B3A6C41E80023BB636F
:104B7000BB6B002BE5D17B681B6814333B623B6A3F
:104B800053E8003FFB61FB6923F00103BB647B68D2
:104B90001B681433BA6CFA62BB62B96AFA6A41E8FC
:104BA00000237B627B6A002BE5D17B681B6B012BAA
:104BB00019D17B681B680C33FB60FB6853E8003F2E
:104BC000BB60BB6823F010037B647B681B680C33FD
:104BD0007A6CBA617B617969BA6941E800233B610B
:104BE0003B69002BE5D17B68202283F842207B685B
:104BF00000221A6300BF5437BD4680BC704780B5A1
:104C000084B000AF78607B685B6AFB60FB68002261
:104C1000DA85FB680022DA84F868FFF721FF00BF1D
:104C20001037BD4680BD80B485B000AF78607B682A
:104C300093F84130DBB2212B3ED17B689B68B3F502
:104C4000805F14D17B681B69002B10D17B681B6AC5
:104C5000FB60FB681B881A467B681B68C2F308026E
:104C60005A607B681B6A9A1C7B681A6208E07B6842
:104C70001B6A591C7A6811621A787B681B685A6033
:104C80007B68DB8C9BB2013B9BB27A681946D1846E
:104C9000002B0FD17B681B68DA687B681B6822F0E9
:104CA0008002DA607B681B68DA687B681B6842F008
:104CB0004002DA60002300E0022318461437BD46A4
:104CC00080BC704780B582B000AF78607B681B689D
:104CD000DA687B681B6822F04002DA607B68202279
:104CE00083F841207868FFF7A9FE002318460837AB
:104CF000BD4680BD80B58CB000AF78607B6893F80E
:104D00004230DBB2222B40F0AE807B689B68B3F56B
:104D1000805F17D17B681B69002B13D10023FB62D6
:104D20007B689B6ABB627B681B685B689BB2C3F352
:104D300008039AB2BB6A1A807B689B6A9A1C7B68DC
:104D40009A6226E07B689B6AFB620023BB627B68F9
:104D50009B68B3F5805F07D07B689B68002B0AD106
:104D60007B681B69002B06D17B681B685B68DAB225
:104D7000FB6A1A7008E07B681B685B68DBB203F0B3
:104D80007F03DAB2FB6A1A707B689B6A5A1C7B68E5
:104D90009A627B68DB8D9BB2013B9BB27A681946B5
:104DA000D185002B5DD17B681B68DA687B681B6846
:104DB00022F02002DA607B681B68DA687B681B6877
:104DC00022F48072DA607B681B685A697B681B6812
:104DD00022F001025A617B68202283F842207B681E
:104DE00000225A637B681B6B012B35D17B68002244
:104DF0001A637B681B680C337B617B6953E8003F57
:104E00003B613B6923F010037B627B681B680C33BA
:104E10007A6A3A62FB61F9693A6A41E80023BB6148
:104E2000BB69002BE5D17B681B681B6803F010038E
:104E3000102B0AD10023FB607B681B681B68FB609A
:104E40007B681B685B68FB60FB687B689B8D194611
:104E50007868FFF70EFE02E07868FFF7F8FD0023A0
:104E600002E0002300E0022318463037BD4680BD33
:104E700080B584B000AF78607B681B681B6923F441
:104E800040517B68DA687B681B680A431A617B685B
:104E90009A687B681B691A437B685B691343BB6034
:104EA0007B681B68DB6823F4B05323F00C037A683B
:104EB0001268B9680B43D3607B681B685B6923F495
:104EC00040717B689A697B681B680A435A617B68FA
:104ED0001B682C4A934203D1FEF70CF9F86002E0FC
:104EE000FEF7F4F8F860FA6813469B0013449A0042
:104EF0001A447B685B689B00B2FBF3F3224AA2FB77
:104F000003235B091901FA6813469B0013449A00B6
:104F10001A447B685B689B00B2FBF3F21A4BA3FB5D
:104F200002035B09642000FB03F3D31A1B01323335
:104F3000154AA2FB03235B0903F0F0031944FA6846
:104F400013469B0013449A001A447B685B689B00DD
:104F5000B2FBF3F20C4BA3FB02035B09642000FBE2
:104F600003F3D31A1B013233074AA2FB03235B0965
:104F700003F00F027B681B680A449A6000BF103779
:104F8000BD4680BD003801401F85EB51002B2DE947
:104F9000F0471D46BBBF03F100431D4600232D23F0
:104FA00088B01446B8BF1446129A109E1370149B12
:104FB000DDF84CA023F02008B8F1460F05D0B8F179
:104FC000450F00D10136022300E0032307AA049213
:104FD00006AACDE902A2CDE9003622462B4601F011
:104FE0007BF8B8F1470F074619D1119BDB070ED5A7
:104FF00000EB06090022002320462946FBF7D4FCDB
:1050000008B1CDF81C903022079B4B451ED3384683
:10501000079B159ADB1B136008B0BDE8F087B8F159
:10502000460F00EB0609E5D10378302B0AD10022A8
:10503000002320462946FBF7B7FC18B9C6F1010644
:10504000CAF80060DAF800309944D3E7591C079198
:105050001A70D9E7F7B50029B6BF2D232B23494293
:1050600009290270437029DD0DF107031D460A2747
:10507000B1FBF7F61A4607FB1614303402F8014C60
:105080000C46632C314603F1FF33F1DC3031941EC2
:1050900003F8011C2346411CAB420AD30DF109035E
:1050A0009B1AAC4288BF002302330344181A03B092
:1050B000F0BD13F8016B01F8016FEDE730233031DB
:1050C0008370C170031DF1E72DE9F04F91B00C46DC
:1050D000DDF8688016461F46054600F0EBFE0368C3
:1050E00018460893FBF734F800230E93D8F80030E5
:1050F0000990073323F0070303F1080294F818A07E
:10510000D4F800B0C8F80020D3E9008929F00043A2
:105110000B93CDF828804FF0FF32DDE90A01C4E996
:1051200012899C4BFBF772FC70BBDDE90A014FF062
:10513000FF32984BFBF74CFC30BB0022002340466B
:105140004946FBF73BFC10B12D2384F84330924ACB
:10515000924BBAF1470F8CBF9046984603234FF00D
:10516000000923612BF004032360334621462846BF
:1051700000970FAA00F0D4F9013040F090804FF072
:10518000FF3011B0BDE8F08F42464B4640464946DD
:10519000FBF73CFC48B14B46002BB8BF2D23804A9F
:1051A000B8BF84F843307F4BD3E763680AF0DF0170
:1051B0005A1C3FD10623636000224BF480632360B6
:1051C00006920EAACDE904A20DAA03920DF13302B4
:1051D000CDE9013263684246009328464B460A9166
:1051E000FFF7D4FE0A99804647290D9928D1C81C9B
:1051F00002DB6368994240DDAAF1020A5FFA8AFA8B
:105200005246013904F150000D91FFF723FF0E9A29
:1052100081461318012A236102DC2268D20701D5D6
:10522000013323619DF83330002B9ED02D2384F869
:1052300043309AE74729BFD1002BBDD10123BAE7FC
:10524000BAF1650FDCD9BAF1660F18D1002963688D
:105250000BDD216113B92268D00702D501330B445D
:1052600023614FF00009A165DCE713B92268D2077A
:1052700001D50233F4E70123F2E74FF0670A0E9BF2
:10528000994205DB23682161D807EAD54B1CE7E783
:105290000029CCBF0122C1F102021344E0E72368D8
:1052A0005A0507D42369424631462846B84701309B
:1052B0002BD164E7BAF1650F40F2DC80D4E912012A
:1052C00000220023FBF770FB002833D00123314676
:1052D0002846354AB84701303FF451AFDDE90D3873
:1052E000434502DB2368D8070FD5DDE908233146A3
:1052F0002846B84701303FF442AF4FF0000908F1AB
:10530000FF3804F11A0AC84509DC23689B0700F13D
:105310000281E0680F9B9842B8BF184631E701232D
:10532000524631462846B84701303FF428AF09F1CC
:105330000109E8E70D9B002B38DC012331462846A4
:10534000194AB84701303FF41AAFDDE90D3959EA7F
:10535000030302D12368D907D7D5DDE908233146F5
:105360002846B84701303FF40AAF4FF0000A04F175
:105370001A0B0D9B5B42534501DC4B4693E701231F
:105380005A4631462846B84701303FF4F8AE0AF194
:10539000010AEEE7FFFFEF7FBE960008BA9600080D
:1053A000C6960008C2960008CA960008A36DDDF8EC
:1053B00038A05345A8BF5346002B994636DC4FF022
:1053C000000B29EAE97904F11A02A36D0A93A3EB11
:1053D00009035B4531DC0D9B9A453ADC2368DA070B
:1053E00037D40D9BAAEB03090A9BAAEB030399454B
:1053F000A8BF9946B9F1000F33DC4FF0000829EA45
:10540000E97904F11A0B0D9BAAEB0303A3EB090343
:1054100043457FF77AAF01235A4631462846B847BD
:1054200001303FF4ACAE08F10108ECE742463146EA
:105430002846B8470130C2D1A1E6012331462846AB
:105440000A92B84701303FF49AAE0A9A0BF1010B69
:10545000BBE73146DDE908232846B8470130C0D113
:105460008DE60A9A4B46314628464244B8470130F9
:10547000C3D184E6DDF838A0BAF1010F01DCDB0707
:1054800036D50123424631462846B84701303FF41D
:1054900076AEDDE9082331462846B84701303FF4AF
:1054A0006EAED4E91201002200230AF1FF3AFBF7A5
:1054B0007BFAC0B9534608F1010231462846B84785
:1054C00001300CD15BE601235A4631462846B847E5
:1054D00001303FF454AE08F10108D045F3DB4B46F0
:1054E00004F15002E0E64FF0000804F11A0BF4E773
:1054F00001234246E1E701234A4631462846B847A0
:1055000001303FF43CAE08F10108E3680F995B1AE3
:105510004345F0DCFDE64FF0000804F11909F4E71B
:105520002DE9F047164698468A680B69074693426C
:10553000B8BF1346336091F843200C46DDF8209045
:105540000AB1013333602368990642BF33680233DE
:105550003360256815F0060506D104F1190AE368E1
:1055600032689B1AAB422BDC94F843302268003B34
:1055700018BF0123920630D44146384604F1430255
:10558000C847013023D02368226903F00603042BA7
:1055900014BF002533684FF0000608BFE56804F12A
:1055A0001A0408BFED1A54F8123C08BF25EAE57545
:1055B0009342C4BF9B1AED18B5421AD1002008E0EF
:1055C0000123524641463846C847013003D14FF0C7
:1055D000FF30BDE8F0870135C1E73020E11881F8E0
:1055E00043005A1C94F845102244023382F84310B9
:1055F000C2E70123224641463846C8470130E6D07B
:105600000136D9E72DE9FF470F7E9146782F804676
:105610000C469A460C9E01F1430207D8622F0AD825
:10562000002F00F0D180582F00F0B88004F142061E
:1056300084F842703AE0A7F16303152BF6D801A174
:1056400051F823F09D560008B15600082D56000869
:105650002D5600082D5600082D560008B15600089A
:105660002D5600082D5600082D5600082D5600080E
:10567000AF570008DB560008695700082D56000890
:105680002D560008D15700082D560008DB5600089B
:105690002D5600082D5600087157000833681A1D52
:1056A0001B68326004F1420684F8423001239CE01A
:1056B00033682068191D3160060601D51D6803E0B6
:1056C0004506FBD5B3F90050002D03DA2D236D42BA
:1056D00084F843300A23584811E0216833680806EB
:1056E00053F8045B02D4490648BFADB26F2F336054
:1056F00014BF0A2308235048002184F84310666829
:10570000002EA66005DB21682E4321F004012160F4
:105710004BD01646B5FBF3F103FB1157C75D06F8F6
:10572000017D2F46BB420D46F4D9082B0BD12368CF
:10573000DF0708D5236961689942DEBF302306F888
:10574000013C06F1FF36921B22614B462146404642
:10575000CDF800A003AAFFF7E3FE01304AD14FF0D5
:10576000FF3004B0BDE8F087236843F020032360D6
:105770007827324884F84570236831681F0651F84D
:10578000045B02D45F0648BFADB23160D90744BFA5
:1057900043F0200323601DB11023ADE72648E9E75D
:1057A000236823F020032360F6E71646BDE733683D
:1057B0002568181D616930602E061B6801D51960C7
:1057C00002E06806FBD51980002316462361BCE77A
:1057D000336800211A1D32601E686268304600F08E
:1057E000E0FB08B1801B606063682361002384F8DC
:1057F0004330AAE73246494640462369D047013044
:10580000ADD023689B0713D4E068039B9842B8BFD0
:105810001846A6E70123324649464046D0470130A4
:105820009DD00135E36803995B1AAB42F2DCEBE7EC
:10583000002504F11906F5E7CC960008DD9600086E
:105840002DE9F04F87B003938B6891465A1EB2F54D
:10585000AE7F82BF6FF4AE7503EB050B40F25D13B4
:105860000A464FF0000588BF8B600B68804643F402
:10587000F06342F81C3B0C4698BF4FF0000B1646F5
:10588000AA462F46CDE9045501920295A2685AB165
:10589000D9F800301B784E2B62D8402B3AD8A3F1B0
:1058A0002B01C8B20E2838D91FB1236823F48073A6
:1058B00023600AF1FF3ABAF1010F00F21481019B53
:1058C0009E4200F20581012007B0BDE8F08FA3F1F0
:1058D00061020D2AE8D801A151F822F0255A0008EA
:1058E000A9580008A9580008A9580008815A0008BA
:1058F0005B5A0008A9580008A9580008335A000844
:10590000A9580008A9580008A9580008A958000873
:10591000EF590008A3F14102DBE70E29C4D801A02A
:1059200050F821F0DF590008A9580008DF59000895
:105930006F5A0008A958000881590008C559000885
:10594000C5590008C5590008C5590008C5590008BF
:10595000C5590008C5590008C5590008C5590008AF
:105960006E2B09D8602BB2D8542B7BD0592B9BD1EE
:10597000072D99D108252FE0742B73D0792BF6E7EA
:105980002168C8051ED521F0800121600137BBF1D7
:10599000000F03D001320BF1FF3BA260A368013B73
:1059A000A360236901332361D9F80430013B002B44
:1059B000C9F8043040F38380D9F800300133C9F8C6
:1059C000003063E71AEB05017FF46EAF0D468A469F
:1059D000226822F4C072226006F8013BDEE72268EA
:1059E00010067FF561AF22F080022260F4E7BAF181
:1059F000000F0CD177B9226802F4E061B1F5E06FD5
:105A000008D122F4F0624FF0010A2260E4E7BAF113
:105A1000020F51D0012D02D0042D7FF445AF013586
:105A2000EDB2D9E7BAF1010F7FF43EAF4FF0020AB1
:105A3000D2E775B9002F7FF438AF226802F4E06135
:105A4000B1F5E06F40F0FF8022F4F06201252260A2
:105A5000C2E7032DE3D0052DDFE7022D7FF424AF4D
:105A60000325B9E7062D7FF41FAF0725B4E72268A9
:105A700091057FF519AF22F4207222600297ABE7FF
:105A8000226802F4A061B1F5806F05D050057FF562
:105A90000BAF002F00F0D780910558BF029922F478
:105AA000F06258BF791A42F4C0724FF0000758BF35
:105AB000CDE9041622608FE74FF0030A8CE74946D0
:105AC0004046D4F88031984700283FF4DFAEEBE63B
:105AD000D4F87C314A46404616F8011D98472369A0
